{"contracts/PocketPokerEscrowCUSD.sol":{"PocketPokerEscrowCUSD":{"abi":[{"inputs":[{"internalType":"address","name":"_cUSDTokenAddress","type":"address"}],"stateMutability":"nonpayable","type":"constructor"},{"inputs":[],"name":"AlreadyReady","type":"error"},{"inputs":[],"name":"InsufficientTokenAllowance","type":"error"},{"inputs":[],"name":"InvalidStakeAmount","type":"error"},{"inputs":[],"name":"InvalidWinner","type":"error"},{"inputs":[],"name":"MatchAlreadyResolved","type":"error"},{"inputs":[],"name":"NotFullyFunded","type":"error"},{"inputs":[],"name":"NotParticipant","type":"error"},{"inputs":[],"name":"NotReady","type":"error"},{"inputs":[{"internalType":"address","name":"owner","type":"address"}],"name":"OwnableInvalidOwner","type":"error"},{"inputs":[{"internalType":"address","name":"account","type":"address"}],"name":"OwnableUnauthorizedAccount","type":"error"},{"inputs":[],"name":"ReentrancyGuardReentrantCall","type":"error"},{"inputs":[],"name":"StakeAlreadyFunded","type":"error"},{"inputs":[],"name":"StakeMismatch","type":"error"},{"inputs":[],"name":"TransferFailed","type":"error"},{"anonymous":false,"inputs":[{"indexed":true,"internalType":"bytes32","name":"matchId","type":"bytes32"},{"indexed":true,"internalType":"address","name":"winner","type":"address"},{"indexed":false,"internalType":"uint256","name":"payout","type":"uint256"}],"name":"MatchResolved","type":"event"},{"anonymous":false,"inputs":[{"indexed":true,"internalType":"address","name":"previousOwner","type":"address"},{"indexed":true,"internalType":"address","name":"newOwner","type":"address"}],"name":"OwnershipTransferred","type":"event"},{"anonymous":false,"inputs":[{"indexed":true,"internalType":"bytes32","name":"matchId","type":"bytes32"},{"indexed":true,"internalType":"address","name":"player","type":"address"}],"name":"PlayerReady","type":"event"},{"anonymous":false,"inputs":[{"indexed":true,"internalType":"bytes32","name":"matchId","type":"bytes32"},{"indexed":true,"internalType":"address","name":"player","type":"address"},{"indexed":false,"internalType":"uint256","name":"amount","type":"uint256"}],"name":"StakeFunded","type":"event"},{"inputs":[],"name":"cUSDTokenAddress","outputs":[{"internalType":"address","name":"","type":"address"}],"stateMutability":"view","type":"function"},{"inputs":[{"internalType":"bytes32","name":"matchId","type":"bytes32"},{"internalType":"uint256","name":"amount","type":"uint256"}],"name":"fundStake","outputs":[],"stateMutability":"nonpayable","type":"function"},{"inputs":[{"internalType":"bytes32","name":"matchId","type":"bytes32"}],"name":"getMatch","outputs":[{"components":[{"internalType":"address","name":"playerA","type":"address"},{"internalType":"address","name":"playerB","type":"address"},{"internalType":"uint256","name":"stake","type":"uint256"},{"internalType":"bool","name":"playerAFunded","type":"bool"},{"internalType":"bool","name":"playerBFunded","type":"bool"},{"internalType":"bool","name":"playerAReady","type":"bool"},{"internalType":"bool","name":"playerBReady","type":"bool"},{"internalType":"bool","name":"resolved","type":"bool"},{"internalType":"address","name":"winner","type":"address"}],"internalType":"struct PocketPokerEscrowCUSD.MatchView","name":"viewData","type":"tuple"}],"stateMutability":"view","type":"function"},{"inputs":[{"internalType":"bytes32","name":"matchId","type":"bytes32"}],"name":"markReady","outputs":[],"stateMutability":"nonpayable","type":"function"},{"inputs":[],"name":"owner","outputs":[{"internalType":"address","name":"","type":"address"}],"stateMutability":"view","type":"function"},{"inputs":[{"internalType":"bytes32","name":"matchId","type":"bytes32"},{"internalType":"address","name":"winner","type":"address"}],"name":"payoutWinner","outputs":[],"stateMutability":"nonpayable","type":"function"},{"inputs":[{"internalType":"bytes32","name":"matchId","type":"bytes32"}],"name":"potAmount","outputs":[{"internalType":"uint256","name":"","type":"uint256"}],"stateMutability":"view","type":"function"},{"inputs":[],"name":"renounceOwnership","outputs":[],"stateMutability":"nonpayable","type":"function"},{"inputs":[{"internalType":"address","name":"newOwner","type":"address"}],"name":"transferOwnership","outputs":[],"stateMutability":"nonpayable","type":"function"}],"evm":{"bytecode":{"linkReferences":{},"object":"60a060405234801561001057600080fd5b50604051610f5d380380610f5d83398101604081905261002f9161011b565b338061005657604051631e4fbdf760e01b8152600060048201526024015b60405180910390fd5b61005f816100cb565b50600180556001600160a01b0381166100ba5760405162461bcd60e51b815260206004820152601a60248201527f496e76616c6964206355534420746f6b656e2061646472657373000000000000604482015260640161004d565b6001600160a01b031660805261014b565b600080546001600160a01b038381166001600160a01b0319831681178455604051919092169283917f8be0079c531659141344cd1fd0a4f28419497f9722a3daafe3b4186f6b6457e09190a35050565b60006020828403121561012d57600080fd5b81516001600160a01b038116811461014457600080fd5b9392505050565b608051610ddc6101816000396000818160a70152818161062f015281816106ea015281816109750152610a320152610ddc6000f3fe608060405234801561001057600080fd5b50600436106100935760003560e01c8063a7e0adde11610066578063a7e0adde1461010a578063d6adc4501461012b578063f0875f1d1461013e578063f2fde38b14610151578063fcc6077d1461016457600080fd5b8063715018a61461009857806374595c7e146100a257806389ff3079146100e65780638da5cb5b146100f9575b600080fd5b6100a0610275565b005b6100c97f000000000000000000000000000000000000000000000000000000000000000081565b6040516001600160a01b0390911681526020015b60405180910390f35b6100a06100f4366004610bfa565b610289565b6000546001600160a01b03166100c9565b61011d610118366004610bfa565b6103ea565b6040519081526020016100dd565b6100a0610139366004610c13565b610451565b6100a061014c366004610c51565b6107f6565b6100a061015f366004610c7d565b610b10565b610268610172366004610bfa565b6040805161012081018252600080825260208201819052918101829052606081018290526080810182905260a0810182905260c0810182905260e081018290526101008101919091525060009081526002602081815260409283902083516101208101855281546001600160a01b0390811682526001830154811693820193909352928101549383019390935260039092015460ff808216151560608401526101008083048216151560808501526201000083048216151560a0850152630100000083048216151560c08501526401000000008304909116151560e0840152650100000000009091049092169181019190915290565b6040516100dd9190610c98565b61027d610b53565b6102876000610b80565b565b600081815260026020526040902080546001820154336001600160a01b0392831681149291909116148115826102bd575080155b156102db5760405163721c7c6760e11b815260040160405180910390fd5b811561034a57600383015460ff16610306576040516341d1bdff60e01b815260040160405180910390fd5b600383015462010000900460ff1615610332576040516308003b9b60e21b815260040160405180910390fd5b60038301805462ff00001916620100001790556103b7565b6003830154610100900460ff16610374576040516341d1bdff60e01b815260040160405180910390fd5b60038301546301000000900460ff16156103a1576040516308003b9b60e21b815260040160405180910390fd5b60038301805463ff000000191663010000001790555b604051339085907f8f1de736a5f0fddb03770cc0acc1ca7586c857f9bb55a4939aea34b95513006790600090a350505050565b6000818152600260205260408120600381015460ff16158061041657506003810154610100900460ff16155b8061042d57506003810154640100000000900460ff165b1561043b5750600092915050565b60028082015461044a91610d40565b9392505050565b610459610bd0565b8060000361047a57604051630103be3b60e21b815260040160405180910390fd5b600082815260026020526040902080546001820154336001600160a01b03928316818114939290921614906104f35780156104c85760405163721c7c6760e11b815260040160405180910390fd5b82546001600160a01b031916331783556002830184905560038301805460ff19166001179055610611565b811561054857600383015460ff161561051f5760405163e228521d60e01b815260040160405180910390fd5b8260020154841461054357604051634581e82760e01b815260040160405180910390fd5b610611565b60018301546001600160a01b03166105c75781156105795760405163721c7c6760e11b815260040160405180910390fd5b8260020154841461059d57604051634581e82760e01b815260040160405180910390fd5b6001830180546001600160a01b0319163317905560038301805461ff001916610100179055610611565b80156105f8576003830154610100900460ff161561051f5760405163e228521d60e01b815260040160405180910390fd5b60405163721c7c6760e11b815260040160405180910390fd5b604051636eb1769f60e11b81523360048201523060248201526000907f00000000000000000000000000000000000000000000000000000000000000006001600160a01b03169063dd62ed3e90604401602060405180830381865afa15801561067e573d6000803e3d6000fd5b505050506040513d601f19601f820116820180604052508101906106a29190610d6b565b9050848110156106c55760405163a085b77b60e01b815260040160405180910390fd5b6040516323b872dd60e01b8152336004820152306024820152604481018690526000907f00000000000000000000000000000000000000000000000000000000000000006001600160a01b0316906323b872dd906064016020604051808303816000875af115801561073b573d6000803e3d6000fd5b505050506040513d601f19601f8201168201806040525081019061075f9190610d84565b90508061077f576040516312171d8360e31b815260040160405180910390fd5b83156107955760038501805460ff191660011790555b82156107ad5760038501805461ff0019166101001790555b604051868152339088907f231dab6eeaea2b7122265204ae732b4ae7cd61cd3a1d25cfc54b82d40dcd5f4c9060200160405180910390a350505050506107f260018055565b5050565b6107fe610b53565b610806610bd0565b60008281526002602052604090206003810154640100000000900460ff16156108425760405163347b471560e11b815260040160405180910390fd5b600381015460ff16158061086057506003810154610100900460ff16155b1561087e576040516341d1bdff60e01b815260040160405180910390fd5b600381015462010000900460ff1615806108a4575060038101546301000000900460ff16155b156108c257604051634a44555360e11b815260040160405180910390fd5b80546001600160a01b038381169116148015906108ef575060018101546001600160a01b03838116911614155b1561090d576040516393a5f3c760e01b815260040160405180910390fd5b6003810180546001600160a01b0384166501000000000002640100000000600160c81b0319909116176401000000001790556002808201546000916109529190610d40565b6040516370a0823160e01b81523060048201529091506000906001600160a01b037f000000000000000000000000000000000000000000000000000000000000000016906370a0823190602401602060405180830381865afa1580156109bc573d6000803e3d6000fd5b505050506040513d601f19601f820116820180604052508101906109e09190610d6b565b905081811015610a03576040516312171d8360e31b815260040160405180910390fd5b60006002840181905560405163a9059cbb60e01b81526001600160a01b038681166004830152602482018590527f0000000000000000000000000000000000000000000000000000000000000000169063a9059cbb906044016020604051808303816000875af1158015610a7b573d6000803e3d6000fd5b505050506040513d601f19601f82011682018060405250810190610a9f9190610d84565b905080610abf576040516312171d8360e31b815260040160405180910390fd5b846001600160a01b0316867fc621d3b3ae6f9cc9f11a67aab85919988171f96a9bac8aa5100c7611885f4d2c85604051610afb91815260200190565b60405180910390a3505050506107f260018055565b610b18610b53565b6001600160a01b038116610b4757604051631e4fbdf760e01b8152600060048201526024015b60405180910390fd5b610b5081610b80565b50565b6000546001600160a01b031633146102875760405163118cdaa760e01b8152336004820152602401610b3e565b600080546001600160a01b038381166001600160a01b0319831681178455604051919092169283917f8be0079c531659141344cd1fd0a4f28419497f9722a3daafe3b4186f6b6457e09190a35050565b600260015403610bf357604051633ee5aeb560e01b815260040160405180910390fd5b6002600155565b600060208284031215610c0c57600080fd5b5035919050565b60008060408385031215610c2657600080fd5b50508035926020909101359150565b80356001600160a01b0381168114610c4c57600080fd5b919050565b60008060408385031215610c6457600080fd5b82359150610c7460208401610c35565b90509250929050565b600060208284031215610c8f57600080fd5b61044a82610c35565b81516001600160a01b0390811682526020808401519091169082015260408083015190820152606080830151610120830191610cd79084018215159052565b506080830151610ceb608084018215159052565b5060a0830151610cff60a084018215159052565b5060c0830151610d1360c084018215159052565b5060e0830151610d2760e084018215159052565b50610100928301516001600160a01b0316919092015290565b8082028115828204841417610d6557634e487b7160e01b600052601160045260246000fd5b92915050565b600060208284031215610d7d57600080fd5b5051919050565b600060208284031215610d9657600080fd5b8151801515811461044a57600080fdfea2646970667358221220a923a5b5040b30104e0ab6a500bafa5e9c57e1a012f4c2351e9ddaf4d003177464736f6c63430008180033","opcodes":"PUSH1 0xA0 PUSH1 0x40 MSTORE CALLVALUE DUP1 ISZERO PUSH2 0x10 JUMPI PUSH1 0x0 DUP1 REVERT JUMPDEST POP PUSH1 0x40 MLOAD PUSH2 0xF5D CODESIZE SUB DUP1 PUSH2 0xF5D DUP4 CODECOPY DUP2 ADD PUSH1 0x40 DUP2 SWAP1 MSTORE PUSH2 0x2F SWAP2 PUSH2 0x11B JUMP JUMPDEST CALLER DUP1 PUSH2 0x56 JUMPI PUSH1 0x40 MLOAD PUSH4 0x1E4FBDF7 PUSH1 0xE0 SHL DUP2 MSTORE PUSH1 0x0 PUSH1 0x4 DUP3 ADD MSTORE PUSH1 0x24 ADD JUMPDEST PUSH1 0x40 MLOAD DUP1 SWAP2 SUB SWAP1 REVERT JUMPDEST PUSH2 0x5F DUP2 PUSH2 0xCB JUMP JUMPDEST POP PUSH1 0x1 DUP1 SSTORE PUSH1 0x1 PUSH1 0x1 PUSH1 0xA0 SHL SUB DUP2 AND PUSH2 0xBA JUMPI PUSH1 0x40 MLOAD PUSH3 0x461BCD PUSH1 0xE5 SHL DUP2 MSTORE PUSH1 0x20 PUSH1 0x4 DUP3 ADD MSTORE PUSH1 0x1A PUSH1 0x24 DUP3 ADD MSTORE PUSH32 0x496E76616C6964206355534420746F6B656E2061646472657373000000000000 PUSH1 0x44 DUP3 ADD MSTORE PUSH1 0x64 ADD PUSH2 0x4D JUMP JUMPDEST PUSH1 0x1 PUSH1 0x1 PUSH1 0xA0 SHL SUB AND PUSH1 0x80 MSTORE PUSH2 0x14B JUMP JUMPDEST PUSH1 0x0 DUP1 SLOAD PUSH1 0x1 PUSH1 0x1 PUSH1 0xA0 SHL SUB DUP4 DUP2 AND PUSH1 0x1 PUSH1 0x1 PUSH1 0xA0 SHL SUB NOT DUP4 AND DUP2 OR DUP5 SSTORE PUSH1 0x40 MLOAD SWAP2 SWAP1 SWAP3 AND SWAP3 DUP4 SWAP2 PUSH32 0x8BE0079C531659141344CD1FD0A4F28419497F9722A3DAAFE3B4186F6B6457E0 SWAP2 SWAP1 LOG3 POP POP JUMP JUMPDEST PUSH1 0x0 PUSH1 0x20 DUP3 DUP5 SUB SLT ISZERO PUSH2 0x12D JUMPI PUSH1 0x0 DUP1 REVERT JUMPDEST DUP2 MLOAD PUSH1 0x1 PUSH1 0x1 PUSH1 0xA0 SHL SUB DUP2 AND DUP2 EQ PUSH2 0x144 JUMPI PUSH1 0x0 DUP1 REVERT JUMPDEST SWAP4 SWAP3 POP POP POP JUMP JUMPDEST PUSH1 0x80 MLOAD PUSH2 0xDDC PUSH2 0x181 PUSH1 0x0 CODECOPY PUSH1 0x0 DUP2 DUP2 PUSH1 0xA7 ADD MSTORE DUP2 DUP2 PUSH2 0x62F ADD MSTORE DUP2 DUP2 PUSH2 0x6EA ADD MSTORE DUP2 DUP2 PUSH2 0x975 ADD MSTORE PUSH2 0xA32 ADD MSTORE PUSH2 0xDDC PUSH1 0x0 RETURN INVALID PUSH1 0x80 PUSH1 0x40 MSTORE CALLVALUE DUP1 ISZERO PUSH2 0x10 JUMPI PUSH1 0x0 DUP1 REVERT JUMPDEST POP PUSH1 0x4 CALLDATASIZE LT PUSH2 0x93 JUMPI PUSH1 0x0 CALLDATALOAD PUSH1 0xE0 SHR DUP1 PUSH4 0xA7E0ADDE GT PUSH2 0x66 JUMPI DUP1 PUSH4 0xA7E0ADDE EQ PUSH2 0x10A JUMPI DUP1 PUSH4 0xD6ADC450 EQ PUSH2 0x12B JUMPI DUP1 PUSH4 0xF0875F1D EQ PUSH2 0x13E JUMPI DUP1 PUSH4 0xF2FDE38B EQ PUSH2 0x151 JUMPI DUP1 PUSH4 0xFCC6077D EQ PUSH2 0x164 JUMPI PUSH1 0x0 DUP1 REVERT JUMPDEST DUP1 PUSH4 0x715018A6 EQ PUSH2 0x98 JUMPI DUP1 PUSH4 0x74595C7E EQ PUSH2 0xA2 JUMPI DUP1 PUSH4 0x89FF3079 EQ PUSH2 0xE6 JUMPI DUP1 PUSH4 0x8DA5CB5B EQ PUSH2 0xF9 JUMPI JUMPDEST PUSH1 0x0 DUP1 REVERT JUMPDEST PUSH2 0xA0 PUSH2 0x275 JUMP JUMPDEST STOP JUMPDEST PUSH2 0xC9 PUSH32 0x0 DUP2 JUMP JUMPDEST PUSH1 0x40 MLOAD PUSH1 0x1 PUSH1 0x1 PUSH1 0xA0 SHL SUB SWAP1 SWAP2 AND DUP2 MSTORE PUSH1 0x20 ADD JUMPDEST PUSH1 0x40 MLOAD DUP1 SWAP2 SUB SWAP1 RETURN JUMPDEST PUSH2 0xA0 PUSH2 0xF4 CALLDATASIZE PUSH1 0x4 PUSH2 0xBFA JUMP JUMPDEST PUSH2 0x289 JUMP JUMPDEST PUSH1 0x0 SLOAD PUSH1 0x1 PUSH1 0x1 PUSH1 0xA0 SHL SUB AND PUSH2 0xC9 JUMP JUMPDEST PUSH2 0x11D PUSH2 0x118 CALLDATASIZE PUSH1 0x4 PUSH2 0xBFA JUMP JUMPDEST PUSH2 0x3EA JUMP JUMPDEST PUSH1 0x40 MLOAD SWAP1 DUP2 MSTORE PUSH1 0x20 ADD PUSH2 0xDD JUMP JUMPDEST PUSH2 0xA0 PUSH2 0x139 CALLDATASIZE PUSH1 0x4 PUSH2 0xC13 JUMP JUMPDEST PUSH2 0x451 JUMP JUMPDEST PUSH2 0xA0 PUSH2 0x14C CALLDATASIZE PUSH1 0x4 PUSH2 0xC51 JUMP JUMPDEST PUSH2 0x7F6 JUMP JUMPDEST PUSH2 0xA0 PUSH2 0x15F CALLDATASIZE PUSH1 0x4 PUSH2 0xC7D JUMP JUMPDEST PUSH2 0xB10 JUMP JUMPDEST PUSH2 0x268 PUSH2 0x172 CALLDATASIZE PUSH1 0x4 PUSH2 0xBFA JUMP JUMPDEST PUSH1 0x40 DUP1 MLOAD PUSH2 0x120 DUP2 ADD DUP3 MSTORE PUSH1 0x0 DUP1 DUP3 MSTORE PUSH1 0x20 DUP3 ADD DUP2 SWAP1 MSTORE SWAP2 DUP2 ADD DUP3 SWAP1 MSTORE PUSH1 0x60 DUP2 ADD DUP3 SWAP1 MSTORE PUSH1 0x80 DUP2 ADD DUP3 SWAP1 MSTORE PUSH1 0xA0 DUP2 ADD DUP3 SWAP1 MSTORE PUSH1 0xC0 DUP2 ADD DUP3 SWAP1 MSTORE PUSH1 0xE0 DUP2 ADD DUP3 SWAP1 MSTORE PUSH2 0x100 DUP2 ADD SWAP2 SWAP1 SWAP2 MSTORE POP PUSH1 0x0 SWAP1 DUP2 MSTORE PUSH1 0x2 PUSH1 0x20 DUP2 DUP2 MSTORE PUSH1 0x40 SWAP3 DUP4 SWAP1 KECCAK256 DUP4 MLOAD PUSH2 0x120 DUP2 ADD DUP6 MSTORE DUP2 SLOAD PUSH1 0x1 PUSH1 0x1 PUSH1 0xA0 SHL SUB SWAP1 DUP2 AND DUP3 MSTORE PUSH1 0x1 DUP4 ADD SLOAD DUP2 AND SWAP4 DUP3 ADD SWAP4 SWAP1 SWAP4 MSTORE SWAP3 DUP2 ADD SLOAD SWAP4 DUP4 ADD SWAP4 SWAP1 SWAP4 MSTORE PUSH1 0x3 SWAP1 SWAP3 ADD SLOAD PUSH1 0xFF DUP1 DUP3 AND ISZERO ISZERO PUSH1 0x60 DUP5 ADD MSTORE PUSH2 0x100 DUP1 DUP4 DIV DUP3 AND ISZERO ISZERO PUSH1 0x80 DUP6 ADD MSTORE PUSH3 0x10000 DUP4 DIV DUP3 AND ISZERO ISZERO PUSH1 0xA0 DUP6 ADD MSTORE PUSH4 0x1000000 DUP4 DIV DUP3 AND ISZERO ISZERO PUSH1 0xC0 DUP6 ADD MSTORE PUSH5 0x100000000 DUP4 DIV SWAP1 SWAP2 AND ISZERO ISZERO PUSH1 0xE0 DUP5 ADD MSTORE PUSH6 0x10000000000 SWAP1 SWAP2 DIV SWAP1 SWAP3 AND SWAP2 DUP2 ADD SWAP2 SWAP1 SWAP2 MSTORE SWAP1 JUMP JUMPDEST PUSH1 0x40 MLOAD PUSH2 0xDD SWAP2 SWAP1 PUSH2 0xC98 JUMP JUMPDEST PUSH2 0x27D PUSH2 0xB53 JUMP JUMPDEST PUSH2 0x287 PUSH1 0x0 PUSH2 0xB80 JUMP JUMPDEST JUMP JUMPDEST PUSH1 0x0 DUP2 DUP2 MSTORE PUSH1 0x2 PUSH1 0x20 MSTORE PUSH1 0x40 SWAP1 KECCAK256 DUP1 SLOAD PUSH1 0x1 DUP3 ADD SLOAD CALLER PUSH1 0x1 PUSH1 0x1 PUSH1 0xA0 SHL SUB SWAP3 DUP4 AND DUP2 EQ SWAP3 SWAP2 SWAP1 SWAP2 AND EQ DUP2 ISZERO DUP3 PUSH2 0x2BD JUMPI POP DUP1 ISZERO JUMPDEST ISZERO PUSH2 0x2DB JUMPI PUSH1 0x40 MLOAD PUSH4 0x721C7C67 PUSH1 0xE1 SHL DUP2 MSTORE PUSH1 0x4 ADD PUSH1 0x40 MLOAD DUP1 SWAP2 SUB SWAP1 REVERT JUMPDEST DUP2 ISZERO PUSH2 0x34A JUMPI PUSH1 0x3 DUP4 ADD SLOAD PUSH1 0xFF AND PUSH2 0x306 JUMPI PUSH1 0x40 MLOAD PUSH4 0x41D1BDFF PUSH1 0xE0 SHL DUP2 MSTORE PUSH1 0x4 ADD PUSH1 0x40 MLOAD DUP1 SWAP2 SUB SWAP1 REVERT JUMPDEST PUSH1 0x3 DUP4 ADD SLOAD PUSH3 0x10000 SWAP1 DIV PUSH1 0xFF AND ISZERO PUSH2 0x332 JUMPI PUSH1 0x40 MLOAD PUSH4 0x8003B9B PUSH1 0xE2 SHL DUP2 MSTORE PUSH1 0x4 ADD PUSH1 0x40 MLOAD DUP1 SWAP2 SUB SWAP1 REVERT JUMPDEST PUSH1 0x3 DUP4 ADD DUP1 SLOAD PUSH3 0xFF0000 NOT AND PUSH3 0x10000 OR SWAP1 SSTORE PUSH2 0x3B7 JUMP JUMPDEST PUSH1 0x3 DUP4 ADD SLOAD PUSH2 0x100 SWAP1 DIV PUSH1 0xFF AND PUSH2 0x374 JUMPI PUSH1 0x40 MLOAD PUSH4 0x41D1BDFF PUSH1 0xE0 SHL DUP2 MSTORE PUSH1 0x4 ADD PUSH1 0x40 MLOAD DUP1 SWAP2 SUB SWAP1 REVERT JUMPDEST PUSH1 0x3 DUP4 ADD SLOAD PUSH4 0x1000000 SWAP1 DIV PUSH1 0xFF AND ISZERO PUSH2 0x3A1 JUMPI PUSH1 0x40 MLOAD PUSH4 0x8003B9B PUSH1 0xE2 SHL DUP2 MSTORE PUSH1 0x4 ADD PUSH1 0x40 MLOAD DUP1 SWAP2 SUB SWAP1 REVERT JUMPDEST PUSH1 0x3 DUP4 ADD DUP1 SLOAD PUSH4 0xFF000000 NOT AND PUSH4 0x1000000 OR SWAP1 SSTORE JUMPDEST PUSH1 0x40 MLOAD CALLER SWAP1 DUP6 SWAP1 PUSH32 0x8F1DE736A5F0FDDB03770CC0ACC1CA7586C857F9BB55A4939AEA34B955130067 SWAP1 PUSH1 0x0 SWAP1 LOG3 POP POP POP POP JUMP JUMPDEST PUSH1 0x0 DUP2 DUP2 MSTORE PUSH1 0x2 PUSH1 0x20 MSTORE PUSH1 0x40 DUP2 KECCAK256 PUSH1 0x3 DUP2 ADD SLOAD PUSH1 0xFF AND ISZERO DUP1 PUSH2 0x416 JUMPI POP PUSH1 0x3 DUP2 ADD SLOAD PUSH2 0x100 SWAP1 DIV PUSH1 0xFF AND ISZERO JUMPDEST DUP1 PUSH2 0x42D JUMPI POP PUSH1 0x3 DUP2 ADD SLOAD PUSH5 0x100000000 SWAP1 DIV PUSH1 0xFF AND JUMPDEST ISZERO PUSH2 0x43B JUMPI POP PUSH1 0x0 SWAP3 SWAP2 POP POP JUMP JUMPDEST PUSH1 0x2 DUP1 DUP3 ADD SLOAD PUSH2 0x44A SWAP2 PUSH2 0xD40 JUMP JUMPDEST SWAP4 SWAP3 POP POP POP JUMP JUMPDEST PUSH2 0x459 PUSH2 0xBD0 JUMP JUMPDEST DUP1 PUSH1 0x0 SUB PUSH2 0x47A JUMPI PUSH1 0x40 MLOAD PUSH4 0x103BE3B PUSH1 0xE2 SHL DUP2 MSTORE PUSH1 0x4 ADD PUSH1 0x40 MLOAD DUP1 SWAP2 SUB SWAP1 REVERT JUMPDEST PUSH1 0x0 DUP3 DUP2 MSTORE PUSH1 0x2 PUSH1 0x20 MSTORE PUSH1 0x40 SWAP1 KECCAK256 DUP1 SLOAD PUSH1 0x1 DUP3 ADD SLOAD CALLER PUSH1 0x1 PUSH1 0x1 PUSH1 0xA0 SHL SUB SWAP3 DUP4 AND DUP2 DUP2 EQ SWAP4 SWAP3 SWAP1 SWAP3 AND EQ SWAP1 PUSH2 0x4F3 JUMPI DUP1 ISZERO PUSH2 0x4C8 JUMPI PUSH1 0x40 MLOAD PUSH4 0x721C7C67 PUSH1 0xE1 SHL DUP2 MSTORE PUSH1 0x4 ADD PUSH1 0x40 MLOAD DUP1 SWAP2 SUB SWAP1 REVERT JUMPDEST DUP3 SLOAD PUSH1 0x1 PUSH1 0x1 PUSH1 0xA0 SHL SUB NOT AND CALLER OR DUP4 SSTORE PUSH1 0x2 DUP4 ADD DUP5 SWAP1 SSTORE PUSH1 0x3 DUP4 ADD DUP1 SLOAD PUSH1 0xFF NOT AND PUSH1 0x1 OR SWAP1 SSTORE PUSH2 0x611 JUMP JUMPDEST DUP2 ISZERO PUSH2 0x548 JUMPI PUSH1 0x3 DUP4 ADD SLOAD PUSH1 0xFF AND ISZERO PUSH2 0x51F JUMPI PUSH1 0x40 MLOAD PUSH4 0xE228521D PUSH1 0xE0 SHL DUP2 MSTORE PUSH1 0x4 ADD PUSH1 0x40 MLOAD DUP1 SWAP2 SUB SWAP1 REVERT JUMPDEST DUP3 PUSH1 0x2 ADD SLOAD DUP5 EQ PUSH2 0x543 JUMPI PUSH1 0x40 MLOAD PUSH4 0x4581E827 PUSH1 0xE0 SHL DUP2 MSTORE PUSH1 0x4 ADD PUSH1 0x40 MLOAD DUP1 SWAP2 SUB SWAP1 REVERT JUMPDEST PUSH2 0x611 JUMP JUMPDEST PUSH1 0x1 DUP4 ADD SLOAD PUSH1 0x1 PUSH1 0x1 PUSH1 0xA0 SHL SUB AND PUSH2 0x5C7 JUMPI DUP2 ISZERO PUSH2 0x579 JUMPI PUSH1 0x40 MLOAD PUSH4 0x721C7C67 PUSH1 0xE1 SHL DUP2 MSTORE PUSH1 0x4 ADD PUSH1 0x40 MLOAD DUP1 SWAP2 SUB SWAP1 REVERT JUMPDEST DUP3 PUSH1 0x2 ADD SLOAD DUP5 EQ PUSH2 0x59D JUMPI PUSH1 0x40 MLOAD PUSH4 0x4581E827 PUSH1 0xE0 SHL DUP2 MSTORE PUSH1 0x4 ADD PUSH1 0x40 MLOAD DUP1 SWAP2 SUB SWAP1 REVERT JUMPDEST PUSH1 0x1 DUP4 ADD DUP1 SLOAD PUSH1 0x1 PUSH1 0x1 PUSH1 0xA0 SHL SUB NOT AND CALLER OR SWAP1 SSTORE PUSH1 0x3 DUP4 ADD DUP1 SLOAD PUSH2 0xFF00 NOT AND PUSH2 0x100 OR SWAP1 SSTORE PUSH2 0x611 JUMP JUMPDEST DUP1 ISZERO PUSH2 0x5F8 JUMPI PUSH1 0x3 DUP4 ADD SLOAD PUSH2 0x100 SWAP1 DIV PUSH1 0xFF AND ISZERO PUSH2 0x51F JUMPI PUSH1 0x40 MLOAD PUSH4 0xE228521D PUSH1 0xE0 SHL DUP2 MSTORE PUSH1 0x4 ADD PUSH1 0x40 MLOAD DUP1 SWAP2 SUB SWAP1 REVERT JUMPDEST PUSH1 0x40 MLOAD PUSH4 0x721C7C67 PUSH1 0xE1 SHL DUP2 MSTORE PUSH1 0x4 ADD PUSH1 0x40 MLOAD DUP1 SWAP2 SUB SWAP1 REVERT JUMPDEST PUSH1 0x40 MLOAD PUSH4 0x6EB1769F PUSH1 0xE1 SHL DUP2 MSTORE CALLER PUSH1 0x4 DUP3 ADD MSTORE ADDRESS PUSH1 0x24 DUP3 ADD MSTORE PUSH1 0x0 SWAP1 PUSH32 0x0 PUSH1 0x1 PUSH1 0x1 PUSH1 0xA0 SHL SUB AND SWAP1 PUSH4 0xDD62ED3E SWAP1 PUSH1 0x44 ADD PUSH1 0x20 PUSH1 0x40 MLOAD DUP1 DUP4 SUB DUP2 DUP7 GAS STATICCALL ISZERO DUP1 ISZERO PUSH2 0x67E JUMPI RETURNDATASIZE PUSH1 0x0 DUP1 RETURNDATACOPY RETURNDATASIZE PUSH1 0x0 REVERT JUMPDEST POP POP POP POP PUSH1 0x40 MLOAD RETURNDATASIZE PUSH1 0x1F NOT PUSH1 0x1F DUP3 ADD AND DUP3 ADD DUP1 PUSH1 0x40 MSTORE POP DUP2 ADD SWAP1 PUSH2 0x6A2 SWAP2 SWAP1 PUSH2 0xD6B JUMP JUMPDEST SWAP1 POP DUP5 DUP2 LT ISZERO PUSH2 0x6C5 JUMPI PUSH1 0x40 MLOAD PUSH4 0xA085B77B PUSH1 0xE0 SHL DUP2 MSTORE PUSH1 0x4 ADD PUSH1 0x40 MLOAD DUP1 SWAP2 SUB SWAP1 REVERT JUMPDEST PUSH1 0x40 MLOAD PUSH4 0x23B872DD PUSH1 0xE0 SHL DUP2 MSTORE CALLER PUSH1 0x4 DUP3 ADD MSTORE ADDRESS PUSH1 0x24 DUP3 ADD MSTORE PUSH1 0x44 DUP2 ADD DUP7 SWAP1 MSTORE PUSH1 0x0 SWAP1 PUSH32 0x0 PUSH1 0x1 PUSH1 0x1 PUSH1 0xA0 SHL SUB AND SWAP1 PUSH4 0x23B872DD SWAP1 PUSH1 0x64 ADD PUSH1 0x20 PUSH1 0x40 MLOAD DUP1 DUP4 SUB DUP2 PUSH1 0x0 DUP8 GAS CALL ISZERO DUP1 ISZERO PUSH2 0x73B JUMPI RETURNDATASIZE PUSH1 0x0 DUP1 RETURNDATACOPY RETURNDATASIZE PUSH1 0x0 REVERT JUMPDEST POP POP POP POP PUSH1 0x40 MLOAD RETURNDATASIZE PUSH1 0x1F NOT PUSH1 0x1F DUP3 ADD AND DUP3 ADD DUP1 PUSH1 0x40 MSTORE POP DUP2 ADD SWAP1 PUSH2 0x75F SWAP2 SWAP1 PUSH2 0xD84 JUMP JUMPDEST SWAP1 POP DUP1 PUSH2 0x77F JUMPI PUSH1 0x40 MLOAD PUSH4 0x12171D83 PUSH1 0xE3 SHL DUP2 MSTORE PUSH1 0x4 ADD PUSH1 0x40 MLOAD DUP1 SWAP2 SUB SWAP1 REVERT JUMPDEST DUP4 ISZERO PUSH2 0x795 JUMPI PUSH1 0x3 DUP6 ADD DUP1 SLOAD PUSH1 0xFF NOT AND PUSH1 0x1 OR SWAP1 SSTORE JUMPDEST DUP3 ISZERO PUSH2 0x7AD JUMPI PUSH1 0x3 DUP6 ADD DUP1 SLOAD PUSH2 0xFF00 NOT AND PUSH2 0x100 OR SWAP1 SSTORE JUMPDEST PUSH1 0x40 MLOAD DUP7 DUP2 MSTORE CALLER SWAP1 DUP9 SWAP1 PUSH32 0x231DAB6EEAEA2B7122265204AE732B4AE7CD61CD3A1D25CFC54B82D40DCD5F4C SWAP1 PUSH1 0x20 ADD PUSH1 0x40 MLOAD DUP1 SWAP2 SUB SWAP1 LOG3 POP POP POP POP POP PUSH2 0x7F2 PUSH1 0x1 DUP1 SSTORE JUMP JUMPDEST POP POP JUMP JUMPDEST PUSH2 0x7FE PUSH2 0xB53 JUMP JUMPDEST PUSH2 0x806 PUSH2 0xBD0 JUMP JUMPDEST PUSH1 0x0 DUP3 DUP2 MSTORE PUSH1 0x2 PUSH1 0x20 MSTORE PUSH1 0x40 SWAP1 KECCAK256 PUSH1 0x3 DUP2 ADD SLOAD PUSH5 0x100000000 SWAP1 DIV PUSH1 0xFF AND ISZERO PUSH2 0x842 JUMPI PUSH1 0x40 MLOAD PUSH4 0x347B4715 PUSH1 0xE1 SHL DUP2 MSTORE PUSH1 0x4 ADD PUSH1 0x40 MLOAD DUP1 SWAP2 SUB SWAP1 REVERT JUMPDEST PUSH1 0x3 DUP2 ADD SLOAD PUSH1 0xFF AND ISZERO DUP1 PUSH2 0x860 JUMPI POP PUSH1 0x3 DUP2 ADD SLOAD PUSH2 0x100 SWAP1 DIV PUSH1 0xFF AND ISZERO JUMPDEST ISZERO PUSH2 0x87E JUMPI PUSH1 0x40 MLOAD PUSH4 0x41D1BDFF PUSH1 0xE0 SHL DUP2 MSTORE PUSH1 0x4 ADD PUSH1 0x40 MLOAD DUP1 SWAP2 SUB SWAP1 REVERT JUMPDEST PUSH1 0x3 DUP2 ADD SLOAD PUSH3 0x10000 SWAP1 DIV PUSH1 0xFF AND ISZERO DUP1 PUSH2 0x8A4 JUMPI POP PUSH1 0x3 DUP2 ADD SLOAD PUSH4 0x1000000 SWAP1 DIV PUSH1 0xFF AND ISZERO JUMPDEST ISZERO PUSH2 0x8C2 JUMPI PUSH1 0x40 MLOAD PUSH4 0x4A445553 PUSH1 0xE1 SHL DUP2 MSTORE PUSH1 0x4 ADD PUSH1 0x40 MLOAD DUP1 SWAP2 SUB SWAP1 REVERT JUMPDEST DUP1 SLOAD PUSH1 0x1 PUSH1 0x1 PUSH1 0xA0 SHL SUB DUP4 DUP2 AND SWAP2 AND EQ DUP1 ISZERO SWAP1 PUSH2 0x8EF JUMPI POP PUSH1 0x1 DUP2 ADD SLOAD PUSH1 0x1 PUSH1 0x1 PUSH1 0xA0 SHL SUB DUP4 DUP2 AND SWAP2 AND EQ ISZERO JUMPDEST ISZERO PUSH2 0x90D JUMPI PUSH1 0x40 MLOAD PUSH4 0x93A5F3C7 PUSH1 0xE0 SHL DUP2 MSTORE PUSH1 0x4 ADD PUSH1 0x40 MLOAD DUP1 SWAP2 SUB SWAP1 REVERT JUMPDEST PUSH1 0x3 DUP2 ADD DUP1 SLOAD PUSH1 0x1 PUSH1 0x1 PUSH1 0xA0 SHL SUB DUP5 AND PUSH6 0x10000000000 MUL PUSH5 0x100000000 PUSH1 0x1 PUSH1 0xC8 SHL SUB NOT SWAP1 SWAP2 AND OR PUSH5 0x100000000 OR SWAP1 SSTORE PUSH1 0x2 DUP1 DUP3 ADD SLOAD PUSH1 0x0 SWAP2 PUSH2 0x952 SWAP2 SWAP1 PUSH2 0xD40 JUMP JUMPDEST PUSH1 0x40 MLOAD PUSH4 0x70A08231 PUSH1 0xE0 SHL DUP2 MSTORE ADDRESS PUSH1 0x4 DUP3 ADD MSTORE SWAP1 SWAP2 POP PUSH1 0x0 SWAP1 PUSH1 0x1 PUSH1 0x1 PUSH1 0xA0 SHL SUB PUSH32 0x0 AND SWAP1 PUSH4 0x70A08231 SWAP1 PUSH1 0x24 ADD PUSH1 0x20 PUSH1 0x40 MLOAD DUP1 DUP4 SUB DUP2 DUP7 GAS STATICCALL ISZERO DUP1 ISZERO PUSH2 0x9BC JUMPI RETURNDATASIZE PUSH1 0x0 DUP1 RETURNDATACOPY RETURNDATASIZE PUSH1 0x0 REVERT JUMPDEST POP POP POP POP PUSH1 0x40 MLOAD RETURNDATASIZE PUSH1 0x1F NOT PUSH1 0x1F DUP3 ADD AND DUP3 ADD DUP1 PUSH1 0x40 MSTORE POP DUP2 ADD SWAP1 PUSH2 0x9E0 SWAP2 SWAP1 PUSH2 0xD6B JUMP JUMPDEST SWAP1 POP DUP2 DUP2 LT ISZERO PUSH2 0xA03 JUMPI PUSH1 0x40 MLOAD PUSH4 0x12171D83 PUSH1 0xE3 SHL DUP2 MSTORE PUSH1 0x4 ADD PUSH1 0x40 MLOAD DUP1 SWAP2 SUB SWAP1 REVERT JUMPDEST PUSH1 0x0 PUSH1 0x2 DUP5 ADD DUP2 SWAP1 SSTORE PUSH1 0x40 MLOAD PUSH4 0xA9059CBB PUSH1 0xE0 SHL DUP2 MSTORE PUSH1 0x1 PUSH1 0x1 PUSH1 0xA0 SHL SUB DUP7 DUP2 AND PUSH1 0x4 DUP4 ADD MSTORE PUSH1 0x24 DUP3 ADD DUP6 SWAP1 MSTORE PUSH32 0x0 AND SWAP1 PUSH4 0xA9059CBB SWAP1 PUSH1 0x44 ADD PUSH1 0x20 PUSH1 0x40 MLOAD DUP1 DUP4 SUB DUP2 PUSH1 0x0 DUP8 GAS CALL ISZERO DUP1 ISZERO PUSH2 0xA7B JUMPI RETURNDATASIZE PUSH1 0x0 DUP1 RETURNDATACOPY RETURNDATASIZE PUSH1 0x0 REVERT JUMPDEST POP POP POP POP PUSH1 0x40 MLOAD RETURNDATASIZE PUSH1 0x1F NOT PUSH1 0x1F DUP3 ADD AND DUP3 ADD DUP1 PUSH1 0x40 MSTORE POP DUP2 ADD SWAP1 PUSH2 0xA9F SWAP2 SWAP1 PUSH2 0xD84 JUMP JUMPDEST SWAP1 POP DUP1 PUSH2 0xABF JUMPI PUSH1 0x40 MLOAD PUSH4 0x12171D83 PUSH1 0xE3 SHL DUP2 MSTORE PUSH1 0x4 ADD PUSH1 0x40 MLOAD DUP1 SWAP2 SUB SWAP1 REVERT JUMPDEST DUP5 PUSH1 0x1 PUSH1 0x1 PUSH1 0xA0 SHL SUB AND DUP7 PUSH32 0xC621D3B3AE6F9CC9F11A67AAB85919988171F96A9BAC8AA5100C7611885F4D2C DUP6 PUSH1 0x40 MLOAD PUSH2 0xAFB SWAP2 DUP2 MSTORE PUSH1 0x20 ADD SWAP1 JUMP JUMPDEST PUSH1 0x40 MLOAD DUP1 SWAP2 SUB SWAP1 LOG3 POP POP POP POP PUSH2 0x7F2 PUSH1 0x1 DUP1 SSTORE JUMP JUMPDEST PUSH2 0xB18 PUSH2 0xB53 JUMP JUMPDEST PUSH1 0x1 PUSH1 0x1 PUSH1 0xA0 SHL SUB DUP2 AND PUSH2 0xB47 JUMPI PUSH1 0x40 MLOAD PUSH4 0x1E4FBDF7 PUSH1 0xE0 SHL DUP2 MSTORE PUSH1 0x0 PUSH1 0x4 DUP3 ADD MSTORE PUSH1 0x24 ADD JUMPDEST PUSH1 0x40 MLOAD DUP1 SWAP2 SUB SWAP1 REVERT JUMPDEST PUSH2 0xB50 DUP2 PUSH2 0xB80 JUMP JUMPDEST POP JUMP JUMPDEST PUSH1 0x0 SLOAD PUSH1 0x1 PUSH1 0x1 PUSH1 0xA0 SHL SUB AND CALLER EQ PUSH2 0x287 JUMPI PUSH1 0x40 MLOAD PUSH4 0x118CDAA7 PUSH1 0xE0 SHL DUP2 MSTORE CALLER PUSH1 0x4 DUP3 ADD MSTORE PUSH1 0x24 ADD PUSH2 0xB3E JUMP JUMPDEST PUSH1 0x0 DUP1 SLOAD PUSH1 0x1 PUSH1 0x1 PUSH1 0xA0 SHL SUB DUP4 DUP2 AND PUSH1 0x1 PUSH1 0x1 PUSH1 0xA0 SHL SUB NOT DUP4 AND DUP2 OR DUP5 SSTORE PUSH1 0x40 MLOAD SWAP2 SWAP1 SWAP3 AND SWAP3 DUP4 SWAP2 PUSH32 0x8BE0079C531659141344CD1FD0A4F28419497F9722A3DAAFE3B4186F6B6457E0 SWAP2 SWAP1 LOG3 POP POP JUMP JUMPDEST PUSH1 0x2 PUSH1 0x1 SLOAD SUB PUSH2 0xBF3 JUMPI PUSH1 0x40 MLOAD PUSH4 0x3EE5AEB5 PUSH1 0xE0 SHL DUP2 MSTORE PUSH1 0x4 ADD PUSH1 0x40 MLOAD DUP1 SWAP2 SUB SWAP1 REVERT JUMPDEST PUSH1 0x2 PUSH1 0x1 SSTORE JUMP JUMPDEST PUSH1 0x0 PUSH1 0x20 DUP3 DUP5 SUB SLT ISZERO PUSH2 0xC0C JUMPI PUSH1 0x0 DUP1 REVERT JUMPDEST POP CALLDATALOAD SWAP2 SWAP1 POP JUMP JUMPDEST PUSH1 0x0 DUP1 PUSH1 0x40 DUP4 DUP6 SUB SLT ISZERO PUSH2 0xC26 JUMPI PUSH1 0x0 DUP1 REVERT JUMPDEST POP POP DUP1 CALLDATALOAD SWAP3 PUSH1 0x20 SWAP1 SWAP2 ADD CALLDATALOAD SWAP2 POP JUMP JUMPDEST DUP1 CALLDATALOAD PUSH1 0x1 PUSH1 0x1 PUSH1 0xA0 SHL SUB DUP2 AND DUP2 EQ PUSH2 0xC4C JUMPI PUSH1 0x0 DUP1 REVERT JUMPDEST SWAP2 SWAP1 POP JUMP JUMPDEST PUSH1 0x0 DUP1 PUSH1 0x40 DUP4 DUP6 SUB SLT ISZERO PUSH2 0xC64 JUMPI PUSH1 0x0 DUP1 REVERT JUMPDEST DUP3 CALLDATALOAD SWAP2 POP PUSH2 0xC74 PUSH1 0x20 DUP5 ADD PUSH2 0xC35 JUMP JUMPDEST SWAP1 POP SWAP3 POP SWAP3 SWAP1 POP JUMP JUMPDEST PUSH1 0x0 PUSH1 0x20 DUP3 DUP5 SUB SLT ISZERO PUSH2 0xC8F JUMPI PUSH1 0x0 DUP1 REVERT JUMPDEST PUSH2 0x44A DUP3 PUSH2 0xC35 JUMP JUMPDEST DUP2 MLOAD PUSH1 0x1 PUSH1 0x1 PUSH1 0xA0 SHL SUB SWAP1 DUP2 AND DUP3 MSTORE PUSH1 0x20 DUP1 DUP5 ADD MLOAD SWAP1 SWAP2 AND SWAP1 DUP3 ADD MSTORE PUSH1 0x40 DUP1 DUP4 ADD MLOAD SWAP1 DUP3 ADD MSTORE PUSH1 0x60 DUP1 DUP4 ADD MLOAD PUSH2 0x120 DUP4 ADD SWAP2 PUSH2 0xCD7 SWAP1 DUP5 ADD DUP3 ISZERO ISZERO SWAP1 MSTORE JUMP JUMPDEST POP PUSH1 0x80 DUP4 ADD MLOAD PUSH2 0xCEB PUSH1 0x80 DUP5 ADD DUP3 ISZERO ISZERO SWAP1 MSTORE JUMP JUMPDEST POP PUSH1 0xA0 DUP4 ADD MLOAD PUSH2 0xCFF PUSH1 0xA0 DUP5 ADD DUP3 ISZERO ISZERO SWAP1 MSTORE JUMP JUMPDEST POP PUSH1 0xC0 DUP4 ADD MLOAD PUSH2 0xD13 PUSH1 0xC0 DUP5 ADD DUP3 ISZERO ISZERO SWAP1 MSTORE JUMP JUMPDEST POP PUSH1 0xE0 DUP4 ADD MLOAD PUSH2 0xD27 PUSH1 0xE0 DUP5 ADD DUP3 ISZERO ISZERO SWAP1 MSTORE JUMP JUMPDEST POP PUSH2 0x100 SWAP3 DUP4 ADD MLOAD PUSH1 0x1 PUSH1 0x1 PUSH1 0xA0 SHL SUB AND SWAP2 SWAP1 SWAP3 ADD MSTORE SWAP1 JUMP JUMPDEST DUP1 DUP3 MUL DUP2 ISZERO DUP3 DUP3 DIV DUP5 EQ OR PUSH2 0xD65 JUMPI PUSH4 0x4E487B71 PUSH1 0xE0 SHL PUSH1 0x0 MSTORE PUSH1 0x11 PUSH1 0x4 MSTORE PUSH1 0x24 PUSH1 0x0 REVERT JUMPDEST SWAP3 SWAP2 POP POP JUMP JUMPDEST PUSH1 0x0 PUSH1 0x20 DUP3 DUP5 SUB SLT ISZERO PUSH2 0xD7D JUMPI PUSH1 0x0 DUP1 REVERT JUMPDEST POP MLOAD SWAP2 SWAP1 POP JUMP JUMPDEST PUSH1 0x0 PUSH1 0x20 DUP3 DUP5 SUB SLT ISZERO PUSH2 0xD96 JUMPI PUSH1 0x0 DUP1 REVERT JUMPDEST DUP2 MLOAD DUP1 ISZERO ISZERO DUP2 EQ PUSH2 0x44A JUMPI PUSH1 0x0 DUP1 REVERT INVALID LOG2 PUSH5 0x6970667358 0x22 SLT KECCAK256 0xA9 0x23 0xA5 0xB5 DIV SIGNEXTEND ADDRESS LT 0x4E EXP 0xB6 0xA5 STOP 0xBA STATICCALL MCOPY SWAP13 JUMPI 0xE1 LOG0 SLT DELEGATECALL 0xC2 CALLDATALOAD 0x1E SWAP14 0xDA DELEGATECALL 0xD0 SUB OR PUSH21 0x64736F6C6343000818003300000000000000000000 "},"methodIdentifiers":{"cUSDTokenAddress()":"74595c7e","fundStake(bytes32,uint256)":"d6adc450","getMatch(bytes32)":"fcc6077d","markReady(bytes32)":"89ff3079","owner()":"8da5cb5b","payoutWinner(bytes32,address)":"f0875f1d","potAmount(bytes32)":"a7e0adde","renounceOwnership()":"715018a6","transferOwnership(address)":"f2fde38b"}}}}}